:100000000C9434000C9449000C9449000C94490061
:100010000C9449000C9449000C9449000C9449003C
:100020000C9449000C9449000C9449000C9449002C
:100030000C9449000C9449000C9449000C9449001C
:100040000C9449000C9449000C9449000C9449000C
:100050000C9449000C9449000C9449000C944900FC
:100060000C9449000C94490011241FBECFEFD8E036
:10007000DEBFCDBF11E0A0E0B1E0EEE3F2E002C0F0
:1000800005900D92AE30B107D9F70E9408010C948B
:100090001D010C9400001092B90088E48093B80010
:1000A00084E08093BC00089584EA8093BC00809132
:1000B000BC008823E4F7089584E98093BC0085E3BD
:1000C0008A95F1F7000008958093BB0084E880933F
:1000D000BC008091BC008823E4F70895CF93C82F1B
:1000E000C62B0E9454008EE40E9464008C2F8C600A
:1000F0000E94640087EC90E00197F1F700C00000D7
:100100008C2F8B7F88600E94640087EC90E00197C1
:10011000F1F700C000000E945C00CF910895CF93DA
:10012000C82FC295C07F60E0807F0E946E0060E0B3
:100130008C2F0E946E008FE19EE40197F1F700C0C2
:100140000000CF910895CF93C82FC295C07F61E082
:10015000807F0E946E0061E08C2F0E946E008FE114
:100160009EE40197F1F700C00000CF9108952FEFB2
:1001700080E792E0215080409040E1F700C000000D
:1001800060E080E30E946E008FE19EE40197F1F74A
:1001900000C0000060E080E30E946E008FE19EE4FA
:1001A0000197F1F700C0000060E080E30E946E005C
:1001B0008FE19EE40197F1F700C0000060E080E26B
:1001C0000E946E008FE19EE40197F1F700C00000ED
:1001D00088E20E948F008CE00E948F0086E00E94DF
:1001E0008F0081E00E948F008FE19EE40197F1F77C
:1001F00000C000000895CF93DF93EC01888188232D
:1002000021F00E94A3002196F9CFDF91CF910895AC
:100210000E944B000E94B70081E00E948F008FE394
:100220009CE90197F1F700C0000080E80E948F0070
:0E02300080E091E00E94FB00FFCFF894FFCF2A
:0E023E0050727565626120312032203300005D
:00000001FF
